:100000000C94F2040C9439050C9439050C943905C0
:100010000C9439050C9439050C9439050C94390568
:100020000C9439050C9439050C9407240C94432343
:100030000C94B4290C9439050C9439050C943905A9
:100040000C9439050C9439050C9439050C94390538
:100050000C9439050C9458290C9439050C943905E5
:100060000C9439050C9439050C9439050C94390518
:100070000C9439050C9439050C9439050C94390508
:100080000C9439050C9439050C9439050C943905F8
:100090000C9439050C9439050C9439050C943905E8
:1000A0000C9439050C9439050C943905C608C80818
:1000B000CA08CC08CE08D008D208D408DD08DF086A
:1000C000E108E308E508E708E908EB08ED08F808A7
:1000D0009B0C9B0CD60CD60C1F0DB70FB70FB70F90
:1000E0003D0DB70F2A0E2A0EB70FCD0E380E380E63
:1000F000380E380E380E380E380E380E380E380ED0
:10010000380E380E380E380E380E380E490E730E73
:10011000780E7F0E960E51217821252378212523F4
:10012000C421E7212523E822F7224A254A255D2517
:100130005D2553255D255D255D254A254A255825E4
:100140005D255D25582507634236B79BD8A71A3928
:10015000685618AEBAAB558C1D3CB7CC5763BD6D15
:10016000EDFD753EF6177231BF000000803F05A817
:100170004CCDB2D44EB93836A9020C50B99186880C
:10018000083CA6AAAA2ABE000000803F0800000082
:10019000BE922449123EABAAAA2ABECDCCCC4C3E7C
:1001A00000000080BEABAAAAAA3E00000000BF006B
:1001B0000000803F0000000000084178D3BB438767
:1001C000D1133D190E3CC3BD4282AD2B3E68EC827B
:1001D00076BED98FE1A93E4C80EFFFBE01C4FF7F00
:1001E0003F0000000000165C14001A000800150013
:1001F00017001C0018000C00120013002F002B0029
:1002000004001600070009000A000B000D000E0094
:100210000F0033003400E1001D001B000600190030
:100220000500110010003600370038002800E000FB
:10023000E3000000E20001512C000000035139727C
:100240000000310030000251360237022F02300226
:1002500000000000240025002600670000000100C7
:10026000560057002602270200000000210022004D
:100270002300270000000100540055002F0030002B
:10028000000000001E001F0020008500010001008A
:100290000100010001000100010000000100010057
:1002A000000000000000010000000000AD00A900F7
:1002B000000000004000410042004300B200010085
:1002C00000000000AE00AA00000000003D003E005B
:1002D0003F0044000000010000000000000000009A
:1002E000000000003A003B003C0045000000010017
:1002F00001000100010001000100000001000000F8
:1003000000000000000001000000000000000000EC
:10031000000000002A0052004C0000004B000100C9
:10032000000000000000000000004A0050005100E2
:100330004F004D004E0001000000000000000000D2
:10034000000000002D02000000000000010001007C
:100350000100010001000000010000000100010097
:100360000000000000007267626C696768742064B6
:10037000697361626C65205B454550524F4D5D3A33
:10038000207267626C696768745F636F6E66696725
:100390002E656E61626C65203D2025750A007267CE
:1003A000626C6967687420656E61626C65205B458C
:1003B0004550524F4D5D3A207267626C69676874B0
:1003C0005F636F6E6669672E656E61626C65203D66
:1003D0002025750A007267626C6967687420746F03
:1003E00067676C65205B454550524F4D5D3A207202
:1003F00067626C696768745F636F6E6669672E65B4
:100400006E61626C65203D2025750A0044454255A9
:10041000473A20656E61626C65642E0A0062616312
:100420006B6C6967687420696E6372656173653AA5
:100430002025750A006261636B6C696768742064CB
:10044000656372656173653A2025750A00626163B0
:100450006B6C696768742064697361626C650A001B
:100460006261636B6C6967687420656E61626C655C
:100470000A006261636B6C6967687420746F6767F8
:100480006C653A2025750A006261636B6C69676868
:100490007420737465703A2025750A00617564696B
:1004A0006F20706C6179206E6F7465206672657163
:1004B0003D256420766F6C3D256400617564696F2D
:1004C0002073746F70206E6F746520667265713D65
:1004D000256400617564696F2073746F7020616CAE
:1004E0006C206E6F74657300000000000001010154
:1004F00001010101010102020202020202020203E1
:1005000003030303030303040404040404050505AF
:10051000050506060606060707070708080808096E
:1005200009090A0A0A0A0B0B0B0C0C0C0D0D0D0E17
:100530000E0F0F0F101011111112121313141415A6
:100540001516161717181819191A1A1B1C1C1D1D19
:100550001E1F1F202021222223242525262727286D
:10056000292A2B2B2C2D2E2F2F3031323334353698
:10057000363738393A3B3C3D3E3F404142434446A2
:100580004748494A4B4C4D4F505152535556575876
:100590005A5B5C5E5F606263646667696A6C6D6E1D
:1005A000707173747678797B7C7E80818384868891
:1005B0008A8B8D8F91929496989A9B9D9FA1A3A5CB
:1005C000A7A9ABADAFB1B3B5B7B9BBBDBFC1C4C6C9
:1005D000C8CACCCFD1D3D6D8DADCDFE1E4E6E8EB89
:1005E000EDF0F2F5F7FAFCFF54494D455233206522
:1005F0006E61626C65642E0A007267626C6967687E
:1006000074206D6F6465205B4E4F454550524F4DD1
:100610005D3A2025750A007267626C69676874200C
:100620006D6F6465205B454550524F4D5D3A202506
:10063000750A007267626C6967687420736574205C
:10064000687376205B4E4F454550524F4D5D3A20C2
:1006500025752C25752C25750A007267626C6967F3
:1006600068742073657420687376205B454550522A
:100670004F4D5D3A2025752C25752C25750A007285
:1006800067626C69676874207261696E626F772057
:10069000736574206873763A2025752C25752C2592
:1006A000642C25750A006801F000B40078005A0037
:1006B00054494D4552332064697361626C65642E00
:1006C0000A007267626C696768745F636F6E66695F
:1006D000672E7370656564203D2025640A0072678B
:1006E000626C696768745F636F6E6669672E7661B6
:1006F0006C203D2025640A007267626C696768742B
:100700005F636F6E6669672E736174203D20256498
:100710000A007267626C696768745F636F6E66690E
:10072000672E687565203D2025640A007267686C35
:10073000696768745F636F6E6669672E6D6F646565
:10074000203D2025640A007267626C696768745FE7
:10075000636F6E6669672E656E61626C65203D2011
:1007600025640A007267626C696768745F636F6E04
:10077000666967206570726F6D0A007267626C69E6
:100780006768745F696E6974207267626C69676814
:10079000745F636F6E6669672E6D6F6465203D20C0
:1007A000302E2057726974652064656661756C74BB
:1007B0002076616C75657320746F20454550524FEB
:1007C0004D2E0A007267626C696768745F696E69B2
:1007D00074206565636F6E666967206973206E6F4C
:1007E0007420656E61626C65642E0A007267626CCB
:1007F000696768745F696E697420737461727421CB
:100800000A007267626C696768745F696E69742058
:1008100063616C6C65642E0A000A00253031366213
:10082000003A200025303258000A722F6320303100
:1008300032333435363738394142434445460A006D
:100840000A0025303258006B6579626F6172645F0F
:100850007365745F6C65643A20001E140A05783C69
:100860001E6432146432147F3F1F00045B735D000A
:100870004B6579626F6172642073746172742E0AC1
:10088000000631FF0974A1010975150026FF0095C6
:1008900020750881020976150026FF00952075084D
:1008A0009102C005010980A10185031601002603FC
:1008B000001A81002A8300751095018100C0050C83
:1008C0000901A1018504160100269C021A01002AD3
:1008D0009C02751095018100C005010906A1010562
:1008E0000719E029E7150025019508750181029592
:1008F0000175088101050819012905950575019102
:10090000029501750391010507190029FF150026BD
:10091000FF00950675088100C05B435D005B445D88
:10092000005B535D005B575D005B525D0009025B3D
:1009300000030100A0FA09040000010301010009FD
:1009400021110100012240000705810308000A0966
:1009500004010001030000000921110100012236F9
:10096000000705820320000A0904020002030000B8
:100970000009211101000122220007058303200044
:100980000107050303200001120110010000000807
:10099000EDFE60600100010203010403300000006D
:1009A00012034E004900550020004D0069006E0002
:1009B0006900000010034B00420044004600610043
:1009C0006E0073000000040309040A002530325849
:1009D00020006B6579626F6172645F7265706F721F
:1009E000743A200011241FBECFEFDAE0DEBFCDBF86
:1009F00004B603FE27C08091F7049091F804A091FB
:100A0000F904B091FA048730904BA740B04BD1F471
:100A10001092F7041092F8041092F9041092FA045C
:100A200014BE84B7877F84BF0FB6F894A8958091D1
:100A30006000886180936000109260000FBEE0E06B
:100A4000F8E3099513E0A0E0B1E0E6EDF4E602C0BA
:100A500005900D92AE39B107D9F724E0AEE9B3E0C5
:100A600001C01D92A73FB207E1F70E942A1A0C9419
:100A700069320C940000FF93EF93E0919E03F09194
:100A80009F03309709F00995EF91FF910895FC01BC
:100A90008591803011F0EFDFFBCF0895FF27E0E272
:100AA00030E247FF0CC0419597FF09C0EDE2609529
:100AB000709580959095611D711D811D911D27FF79
:100AC00002C0219530E350E2AA27660F771F881FE6
:100AD000991FAA1FA41710F0A41B63955A95A9F794
:100AE000AA3008F0A95FA05DAF93F3956115710579
:100AF0008105910541F7ED3211F4EF93F395F2176B
:100B000018F43F93F395FBCF8F91B5DFFA95E1F79A
:100B10000895E991F9918591803021F0853219F09D
:100B2000AADFF9CF089520E0E89455915532C1F33A
:100B3000503311F4689455915A3348F4505390F35C
:100B4000220F022E220F220F200D250FF4CF0EF4BC
:100B5000219589919991533619F3533729F15335DA
:100B600059F1BC0188279927E8945C3621F48991D2
:100B7000999168945591543639F446EF7EF077FF99
:100B80000DC08FEF9FEF0AC055374AE039F0583556
:100B900040E121F0523642E009F00895FF93EF93CF
:100BA0007DDFEF91FF91B7CFFF93EF93FC01819130
:100BB0008030B9F360DFFBCFFF93EF9368DFF1CFB5
:100BC000DF93CF93CDB7DEB72596A3DFCF91DF912B
:100BD00008954F925F926F927F92AF92BF92CF92A1
:100BE000DF92EF92FF920F931F93CF93DF93CDB7D6
:100BF000DEB7A8970FB6F894DEBF0FBECDBFFC01DD
:100C00000081D18083819481892B39F01FEFD1122B
:100C100006C091E00F3F19F403C091E001C090E0DD
:100C200090FF02C00C94ED0F7F0185E0DE019496E9
:100C300001900D928A95E1F7D70112962C918CA123
:100C40009DA1222349F00E94022B182F682F8CA10E
:100C50009DA10E947B2B03C00E944F2B182FB0E355
:100C60001B9FF00111241CE0D19EE00DF11D112409
:100C7000E00FF11DEE0FFF1FEA51FE4F0591149199
:100C8000D70112969C910D31BCE51B07C9F499233D
:100C900009F484C0A8960FB6F894DEBF0FBECDBF8E
:100CA000DF91CF911F910F91FF90EF90DF90CF9048
:100CB000BF90AF907F906F905F904F900C94D51342
:100CC0000E31ECE51E07C9F4992309F467C0A89614
:100CD0000FB6F894DEBF0FBECDBFDF91CF911F914D
:100CE0000F91FF90EF90DF90CF90BF90AF907F90EB
:100CF0006F905F904F900C943B140F31FCE51F07F1
:100D000041F4992309F44AC08091860480FDDFCF25
:100D1000C1CF98012A523C452230310538F499233D
:100D2000E9F164E070E080E091E020C00632FCE58B
:100D30001F0791F107322CE5120709F41AC1083296
:100D40003CE5130709F4F8C00C325CE5150709F41B
:100D500029C10D328CE5180709F03DC19923F1F046
:100D60001092B70368E070E080E291E0A8960FB6B9
:100D7000F894DEBF0FBECDBFDF91CF911F910F91D1
:100D8000FF90EF90DF90CF90BF90AF907F906F90EB
:100D90005F904F900C940C209111D5C04091B803F6
:100DA000411105C08091B703882309F43EC19923FE
:100DB00009F44FC0003E110569F40E942B1481E034
:100DC0008093B6031092B5031092B4031092B3034C
:100DD0000C94ED0F023E110579F40E942B148091C2
:100DE000B603882319F081E08093B5031092B6030F
:100DF0001092B4030C94ED0F033E110599F4809109
:100E0000B503882331F10E942B141092B60381E0C0
:100E10008093B4031092B2031092B1031092B00306
:100E20000C94ED0F0235110531F48091010290917F
:100E300002020A9708C00135110559F48091010298
:100E4000909102020A9690930202809301020C9400
:100E5000ED0F8091000281110BC0F701818124E028
:100E600030E0281B31098081805FD82EFCE01DC056
:100E7000813079F4D70111968C91119724E030E0FC
:100E8000281B3109D22EDD0CDD0CD20E8C918D5C2D
:100E90002EC0823071F4F701818124E030E0281BFC
:100EA000310980818D5CD82EF7E02F9FD00C112462
:100EB00022C08330F1F483E2EBE5F3E0DE0111962A
:100EC00001900D928A95E1F7D7018C91FE01E80F10
:100ED000F11D11968C9124E030E0281B3109D0845B
:100EE0008D2DBCE02B9F800D112439E0D32ED80E20
:100EF00002C02CE0D22E9923A1F0442319F08D2DAD
:100F00000E940B158091B603882381F08091B30372
:100F1000E82FF0E0E056FC4FD0828F5F8093B30360
:100F200005C0442319F08D2D0E9455140F3F110563
:100F300008F07BC00C94ED0F992309F42FCF80911A
:100F4000B803811119C0A8960FB6F894DEBF0FBE82
:100F5000CDBFDF91CF911F910F91FF90EF90DF9068
:100F6000CF90BF90AF907F906F905F904F900C9418
:100F7000CC13992309F412CFA8960FB6F894DEBFCC
:100F80000FBECDBFDF91CF911F910F91FF90EF90DA
:100F9000DF90CF90BF90AF907F906F905F904F9019
:100FA0000C943114992309F4F9CEA8960FB6F8944D
:100FB000DEBF0FBECDBFDF91CF911F910F91FF908C
:100FC000EF90DF90CF90BF90AF907F906F905F9049
:100FD0004F900C94C3130E32ACE51A0741F49923D9
:100FE00009F4DCCE8091B7038111BACEDECF09328D
:100FF000BCE51B0709F0D2CE992309F4CFCE0E949D
:101000002B142091000230E02F5F3F4F23703327D5
:101010002093000248E2429FC001439F900D11249B
:1010200065E070E0805A9E4FA1CED70112969C9148
:101030000C3CBCE51B0781F5992309F4CEC78091D0
:10104000680490E0019797FF02C080E090E0843050
:10105000910514F083E090E080936804609164044B
:10106000709165048091660490916704A8960FB60C
:10107000F894DEBF0FBECDBFDF91CF911F910F91CE
:10108000FF90EF90DF90CF90BF90AF907F906F90E8
:101090005F904F900C9476110D3CECE51E0708F024
:1010A000AEC1043CFCE51F07E9F4992309F495C798
:1010B00080916D04827269F5A8960FB6F894DEBF30
:1010C0000FBECDBFDF91CF911F910F91FF90EF9099
:1010D000DF90CF90BF90AF907F906F905F904F90D8
:1010E0000C949413053C2CE5120708F0ECC1053173
:1010F0003CE5130720F1023CBCE51B0709F416C1CF
:1011000008F40AC1992309F468C780916D048272BA
:1011100099F6A8960FB6F894DEBF0FBECDBFDF914B
:10112000CF911F910F91FF90EF90DF90CF90BF90E4
:10113000AF907F906F905F904F900C949E13023011
:101140005CE5150708F47BC0992309F4AFC30E943E
:10115000042A811102C00E940F2A84E090E00E94BC
:10116000702D90E09093060480930504F801E350FD
:10117000FC45E231F10530F4EA5AFF4F8091050455
:101180000C943C3280910504816039C0826037C084
:10119000846035C0886033C0806131C080622FC0F8
:1011A00080642DC080682BC08460886080930504B3
:1011B00064E070E08BE292E018C08E7F20C08D7FEB
:1011C0001EC08B7F1CC0877F1AC08F7E18C08F7D8A
:1011D00016C08F7B14C08F7712C08B7F877F809360
:1011E000050462E070E08BE192E00E940C2009C0EF
:1011F00087FB222720F991E0922790FB87F98093C3
:1012000005046091050484E090E00E94842D109212
:101210006D04A8960FB6F894DEBF0FBECDBFDF9168
:10122000CF911F910F91FF90EF90DF90CF90BF90E3
:10123000AF907F906F905F904F900C943F27011577
:101240008CE5180709F045C0992309F4C6C6109229
:101250006D040E943F270E942B140E94A8298C0134
:1012600063E070E083E092E00E940C20C8010E94DD
:101270007E298A3F910538F4EFE9FFE03197F1F7D5
:1012800000C00000F3CF0E94021481E08093E000D0
:1012900080E28093D8001092C9008FE19EE401970C
:1012A000F1F700C0000087E090EBDC018093F704C9
:1012B0009093F804A093F904B093FA049CE088E1B9
:1012C0000FB6F894A895809360000FBE90936000CD
:1012D000FFCF01301C4521F5992309F47EC680918A
:1012E00014048160809314048CE094E0A8960FB6F7
:1012F000F894DEBF0FBECDBFDF91CF911F910F914C
:10130000FF90EF90DF90CF90BF90AF907F906F9065
:101310005F904F900C94470506311C4509F49EC020
:1013200081E08093BE038093BF03C0C2992309F478
:1013300054C680916404817011E081271F928F93BD
:1013400085ED93E09F938F930E94E0058091640464
:101350000F900F900F900F9080FF3DC08E7F809375
:1013600064046091640470916504809166049091B6
:1013700067040E9476118091640481701F928F939C
:1013800086E693E09F938F930E94E0050E94FB10F6
:101390009FEFA0E7B2E09150A040B040E1F700C05D
:1013A00000000F900F900F900F90A8960FB6F89432
:1013B000DEBF0FBECDBFDF91CF911F910F91FF9088
:1013C000EF90DF90CF90BF90AF907F906F905F9045
:1013D0004F900C940A118160809364041F921F93B4
:1013E0008EE993E09F938F930E94E0050F900F90FA
:1013F0000F900F908091640486958F7319C0043DFF
:10140000ECE51E0709F41DC108F069C1003D2CE59B
:10141000120709F421C108F040C10E3C5CE5150734
:1014200009F425C108F02EC1992309F4D6C581E03D
:10143000A8960FB6F894DEBF0FBECDBFDF91CF9157
:101440001F910F91FF90EF90DF90CF90BF90AF90E2
:101450007F906F905F904F900C949113992391F02F
:1014600080916D048A7A91E009F490E09093B90339
:10147000811102C069E201C065E388E894E00E943E
:10148000EA290BC08091B903811102C069E201C051
:1014900065E388E894E00E94DD29A8960FB6F894E9
:1014A000DEBF0FBECDBFDF91CF911F910F91FF9097
:1014B000EF90DF90CF90BF90AF907F906F905F9054
:1014C0004F900C94982A083C2CE5120791F599232B
:1014D00009F483C560916604862F90E008973CF17B
:1014E000685080916404881F8827881F9091650444
:1014F000392F330F97FB992790F921E0409167042A
:10150000832BA8960FB6F894DEBF0FBECDBFDF9138
:10151000CF911F910F91FF90EF90DF90CF90BF90F0
:10152000AF907F906F905F904F900C940C1260E0A2
:10153000D8CF093C3CE5130708F04AC0063C5CE5FF
:10154000150711F5992309F448C520916404221F59
:101550002227221F30916504432F440F842F822BB2
:1015600037FB992790F9883091051CF4805A9E4FDB
:1015700005C0089768E671E00E94063221E04091BC
:10158000670460916604BDCF073C1C4598F499231D
:1015900009F423C520916404221F2227221F3091C1
:1015A0006504432F440F842F822B37FB992790F932
:1015B0000896E0CF992309F410C560916604862F40
:1015C00090E0883F910514F4685F8BCF6FEF89CF6F
:1015D0000A3CACE51A07E1F4992309F4FEC44091F2
:1015E0006704842F90E0089714F0485001C040E051
:1015F00080916404881F8827881F90916504392F83
:10160000330F97FB992790F921E06091660478CF1A
:101610000B3C1C4570F4992309F4DFC44091670426
:10162000842F90E0883F910514F4485FE1CF4FEF9D
:10163000DFCF992309F4D1C48091680490E001962A
:1016400006CD992309F4C9C40E9437118951893004
:1016500008F45FCD89E1ECCE992309F4BEC40E9461
:1016600037118950853008F454CD89E0E1CE9923B3
:1016700009F4B3C40E9437118250833008F449CD75
:1016800082E0D6CE992309F4A8C40E94371186506F
:10169000823008F43ECD86E0CBCE023DACE51A07A1
:1016A00059F4992309F499C40E9437118551823065
:1016B00008F42FCD85E1BCCE033D1C4558F4992399
:1016C00009F48BC40E9437118F50853008F421CD66
:1016D0008FE0AECE992309F480C488E1A9CE093DFC
:1016E000ECE51E0709F062C09923F9F01092BF03E0
:1016F0000E94A8299093BD038093BC0380E2A89622
:101700000FB6F894DEBF0FBECDBFDF91CF911F9112
:101710000F91FF90EF90DF90CF90BF90AF907F90B0
:101720006F905F904F900C9453278091BF03882354
:10173000B9F080E2A8960FB6F894DEBF0FBECDBF19
:10174000DF91CF911F910F91FF90EF90DF90CF909D
:10175000BF90AF907F906F905F904F900C94482710
:101760008091BC039091BD030E947E29883C910525
:1017700000F780E20E94482788E20E94B92788E2A9
:10178000A8960FB6F894DEBF0FBECDBFDF91CF9104
:101790001F910F91FF90EF90DF90CF90BF90AF908F
:1017A0007F906F905F904F900C945D270A3DFCE511
:1017B0001F0708F049C0073D2CE5120709F59923DA
:1017C00051F01092BE030E94A8299093BB0380930E
:1017D000BA0382E094CF8091BE0381110FC0809143
:1017E000BA039091BB030E947E29883C910530F496
:1017F00086E20E94B92786E20E945D2782E09ACFA6
:10180000083D3CE51307B8F0911170CF8091BF03FC
:1018100081118FCF8091BC039091BD030E947E29DE
:10182000883C910508F085CF87E20E94B92787E2BE
:101830000E945D277ECF053D1C4509F071CD99239F
:1018400009F4CBC383E2F4CD0D3D8CE5180739F4E0
:10185000992309F4C2C382E08093FB03BEC30E3D0B
:10186000ACE51A07C9F4992309F4B7C3A8960FB6D3
:10187000F894DEBF0FBECDBFDF91CF911F910F91C6
:10188000FF90EF90DF90CF90BF90AF907F906F90E0
:101890005F904F900C940F2A0C3D1C4509F040CDF1
:1018A000992309F49AC31092FB0397C3F7010081AF
:1018B0001181992349F0C8010E94022BD82E682F6C
:1018C000C8010E947B2B04C0C8010E944F2BD82E58
:1018D000B8018D2D0E949F16B82E192F782EF70172
:1018E000A580A2949FE0A922028101111092EC042C
:1018F0008091EA04877079F0002369F080E28B0D13
:10190000883048F082E00E94D52B8091EA048770ED
:10191000CC24C3948111C12CD12ED2948FE0D82233
:101920008D2D90E08E30910508F021C3FC01E8591F
:10193000FF4F0C943C32812F807F1F70882311F061
:101940001295107F0023B9F0112309F410C280E230
:101950008B0D883010F0711006C080916D04182B2B
:1019600010936D0405C08091EC04182B1093EC04C7
:101970000E94982AFCC18B2D0E945D27112309F437
:10198000F6C280E28B0D1095883010F0711006C001
:1019900080916D04182310936D0405C08091EC04B0
:1019A00018231093EC040E94982AE1C2812F807FB3
:1019B0001F70803211F01295107F772021F0F1E036
:1019C0007F16E1F02AC0002381F08091ED04AA2067
:1019D00051F001E0A01207C0182B181709F4C7C274
:1019E0001093ED04C4C2812B10C0AA2021F021E085
:1019F000A21609F4BCC20E94922A1FC0002341F023
:101A000035E03A1508F4B3C2812F0E945327AFC2C4
:101A100054E05A1508F4ABC210C0002361F0AA20AC
:101A200099F3D70115968C91159780FFA0C18F70FF
:101A300015968C93E9CFA110ACC1812F27C1812FBE
:101A400086958695837019F0813061F090C20023ED
:101A500021F08B2D912F937002C080E090E00E94C6
:101A6000D91090C2002321F08B2D912F937002C0CA
:101A700080E090E00E94C31085C2812F837009F03E
:101A800071C001117DC28B2D829586958770880F5C
:101A9000880F4B2D4F7050E060E070E02A013B0151
:101AA000082E04C0440C551C661C771C0A94D2F7FF
:101AB000B4FE10C04FE050E060E070E004C0440F9E
:101AC000551F661F771F8A95D2F7409550956095F0
:101AD000709503C040E050E0BA01812F869586954D
:101AE00083700091EE041091EF042091F004309186
:101AF000F104823099F0E8F4813059F044295529F5
:101B000066297729CB01BA016023712382239323AD
:101B100026C0402A512A622A732A1BC0442955290B
:101B200066297729CB01BA0160277127822793277D
:101B300016C0CB01BA0160237123822393230E9434
:101B40000F2C4091EE045091EF046091F0047091DD
:101B5000F104CB01BA0164297529862997290E94CD
:101B60000F2C0EC2002319F0812F817001C08695C1
:101B7000882309F405C28B2D829586958770880F7E
:101B8000880F4B2D4F7050E060E070E02A013B0160
:101B9000082E04C0440C551C661C771C0A94D2F70E
:101BA000B4FE10C04FE050E060E070E004C0440FAD
:101BB000551F661F771F8A95D2F7409550956095FF
:101BC000709503C040E050E0BA01812F869586955C
:101BD00083700091E6041091E7042091E8043091AD
:101BE000E904823099F0E8F4813059F0442955290C
:101BF00066297729CB01BA016023712382239323BD
:101C000026C0402A512A622A732A1BC0442955291A
:101C100066297729CB01BA0160277127822793278C
:101C200016C0CB01BA0160237123822393230E9443
:101C3000A62B4091E6045091E7046091E80470916E
:101C4000E904CB01BA0164297529862997290E94E4
:101C5000A62B96C12B2D8B2D90E0FC01E05EF109A7
:101C6000E531F10508F07EC0EA58FF4F0C943C3294
:101C7000BB2DBF70BB2E812F8F71002321F00E94DE
:101C8000EE2B8B2DC2CE0E94B02B8B2D0E944827AD
:101C90006EC1002319F1E4E0EA1508F468C11F7170
:101CA00081E090E0A0E0B0E0AC01BD0104C0440FD1
:101CB000551F661F771F1A95D2F78091E604909101
:101CC000E704A091E804B091E9048A019B01082788
:101CD00019272A273B27C901B80125C025E02A1565
:101CE00008F445C1DCCF002329F0812F8F712CC06F
:101CF0000023D9F3812F8F710E94B02B38C10023AC
:101D000079F01F7181E090E0A0E0B0E0BC01CD016E
:101D100004C0660F771F881F991F1A95D2F703C05A
:101D200060E070E0CB010E94A62B21C1002379F076
:101D30001F71812F0E94EE2B38E0139FC0011124E8
:101D400083608093EA04812F0E94EE2B10C181E012
:101D50000E94D52B51E05A1508F009C182E00E947B
:101D6000D52B05C1002339F0AA2009F4BECF8B2D55
:101D70000E94B927FCC0AA2009F4BCCF293349F43A
:101D80008FEF97EEA3E081509040A040E1F700C0B4
:101D900000008B2D0E945D27EAC00111F3C01F7067
:101DA000123009F45BC028F4112369F0113089F175
:101DB000DEC0143009F4D7C008F49BC0153009F018
:101DC000D6C080E0D1C02091F604822F8695482F9E
:101DD00050E04430510544F48F5F982F990F822FC3
:101DE0008170892B8093F6046091F60461606093A2
:101DF000F60486E090E00E94842D8091140480FF18
:101E0000ACC08091F60486951F928F938DE194E08B
:101E10009CC08091F604982F9695A1F09158990F47
:101E20008170892B8093F6048E7F91E009F490E015
:101E30006091F60490FB60F96093F60486E090E010
:101E40000E94842D8091140480FF87C08091F60445
:101E500086951F928F9385E394E077C01091F604E6
:101E600011708091140480FF0CC01F921F9382E7B1
:101E700094E09F938F930E94E0050F900F900F9036
:101E80000F906091F6041123B9F060FF7BC06E7F64
:101E90006093F60486E090E00E94842D8091140403
:101EA00080FF08C08DE494E09F938F930E94E0052B
:101EB0000F900F9080E054C060FD64C0616060933B
:101EC000F604613019F483E08093F6046091F6041F
:101ED00086E090E00E94842D8091140480FF3DC034
:101EE00080E694E09F938F930E94E0050F900F90FF
:101EF00034C08091F604282F26952F5F2F77922FDC
:101F0000990F8170892B8093F604253018F0817029
:101F10008093F6048091F6048E7F91E009F490E0BE
:101F20006091F60490FB60F96093F60486E090E01F
:101F30000E94842D8091140480FF0FC08091F604CC
:101F400086951F928F9388E894E09F938F930E94C9
:101F5000E0050F900F900F900F908091F6048695FA
:101F60000E942F190FC084E00E943B290BC0B8E0EB
:101F7000DB1631F0DB1630F086EF8D0D823010F479
:101F80000E94EF10CC2049F18091EA0480FD25C029
:101F9000F70112828595859585950E94EE2BC701E4
:101FA0000E94E9058091EA04859585958595A89616
:101FB0000FB6F894DEBF0FBECDBFDF91CF911F915A
:101FC0000F91FF90EF90DF90CF90BF90AF907F90F8
:101FD0006F905F904F900C94B02BA8960FB6F8942A
:101FE000DEBF0FBECDBFDF91CF911F910F91FF904C
:101FF000EF90DF90CF90BF90AF907F906F905F9009
:102000004F9008959091050492FF0DC0282F2871DC
:10201000283019F4877F846006C0282F247124306B
:1020200011F48B7F886093FF0DC0282F2871283111
:1020300019F4877E846106C0282F2471243111F49D
:102040008B7E886194FD877E08951F93CF93DF93E5
:10205000CDB7DEB767970FB6F894DEBF0FBECDBF22
:102060004B8B5C8B6D8B7E8B8F8B86E09E01235F11
:102070003F4FD901E82F1D92EA95E9F795E0FE015F
:102080007396D90101900D929A95E1F7F901DE015D
:10209000179601900D928A95E1F7CE0107960E945E
:1020A000612581113EC086E0FE013796DE01119662
:1020B00001900D928A95E1F7FF81E8856A857B851D
:1020C0006115710531F0EF3F31F481E0FF3F19F404
:1020D00003C081E001C080E080FD23C02091960410
:1020E00030E0C9010196877099274091C70450E0FC
:1020F0008417950779F1F983EA837D836C8396E0F1
:10210000929FD001939FB00D1124A956BB4FFE01A1
:10211000319601900D929A95E1F7809396040E9472
:10212000192C16E08091C70490919604891709F143
:10213000189FC001112489569B4F0E946125882356
:10214000C1F08091C70490E0019687709927809331
:10215000C704E8CF10926D040E943F2710929604A6
:102160001092C704E0E9F4E086E0DF011D928A9551
:10217000E9F767960FB6F894DEBF0FBECDBFDF91CB
:10218000CF911F9108952091F9033091FA032817F8
:10219000390771F09093FA038093F903E0910804F2
:1021A000F0910904309721F00084F185E02D099425
:1021B00008952091F7033091F8032817390771F03B
:1021C0009093F8038093F703E0910804F0910904D9
:1021D000309721F00680F781E02D09940895E09171
:1021E0000804F0910904309721F00190F081E02D6E
:1021F000099480E00895109269048091140480FF8E
:1022000008C080EB96E09F938F930E94E0050F90AB
:102210000F9008958091640480FD0AC0E6E3F4E025
:10222000118210821282339694E0E036F907C1F7EA
:102230006A9A6AE270E086E394E00E941F2087ECCD
:1022400090E00197F1F700C00000089590916404B8
:1022500090FF0CC0E6E3F4E0818360834283339611
:1022600094E0E036F907C1F70C940A1108958091C3
:10227000640480FF03C086958F73089580E00895FD
:1022800080916404282F26952F7330E021153105A5
:1022900019F48178826005C02532310524F08178F7
:1022A00088648093640430916404432F441F44275E
:1022B000441F20916504522F550F852F842B27FB37
:1022C000992790F9893641E094077CF068E671E03F
:1022D0000E94063280FB37F930936404869520789B
:1022E000822B90FB87F9809365040895CF92DF924B
:1022F000EF92FF926B017C010E944011B701A60191
:1023000088E090E0FF90EF90DF90CF900C94962DB6
:10231000E4E6F4E083E08083109265048FEF82832B
:102320008383148260817181828193810C94761100
:10233000EF92FF920F931F93CF93DF93E9016623F0
:1023400009F44BC0242F30E0EFEFF0E0E61BF10979
:10235000B901E69F9001E79F300DF69F300D1124E3
:10236000232F8B01031B11095CE3E52EF12CB70130
:102370000E94F231FB01BC01069FC001079F900D36
:10238000169F900D1124B7010E94F231E230F10541
:10239000B1F040F4309779F0319711F5832F242F65
:1023A000461B21C0E430F105A1F068F03597C1F477
:1023B000842F861B18C0832F262F230F14C0862F2F
:1023C000830FE42F03C0E42FE61B842F432F2E2F0F
:1023D0000AC0842F462F430F06C0842F242F03C02A
:1023E00080E020E040E0E42FF0E0E851FB4F449132
:1023F000E22FF0E0E851FB4F9491E82FF0E0E85134
:10240000FB4FE49149839883EA83DF91CF911F9139
:102410000F91FF90EF9008952F923F924F925F920D
:102420006F927F928F929F92AF92BF92CF92DF92E4
:10243000EF92FF920F931F93CF93DF93CDB7DEB749
:1024400027970FB6F894DEBF0FBECDBF8C01462E86
:10245000542E2F838091640480FFDFC0982F9E77D5
:10246000923061F49E012F5F3F4FC8010E94981186
:102470004B8169818A810E94261182C0E82FE695EE
:10248000EF739EE39E0F9F73943018F4509067048F
:1024900077C09AE39E0F9F73993068F4881F88274E
:1024A000881F90916504292F220F022F082B97FB7C
:1024B000112710F965C087E28E0F8F738A3008F0FC
:1024C0005FC0F0E07997E0FD03C021E02C8302C0FB
:1024D0008FEF8C83EE7FEA55F94F85909490C4017D
:1024E0006EE070E00E94F2319C81692E990F7708AE
:1024F000669DC001679D900D769D900D11249E8371
:102500008D83580198E9A91A9EEFB90A86E3C82E6F
:1025100084E0D82EE12CF12CC50168E671E00E9420
:10252000F2311C018091140480FF14C09F928F929D
:102530007F922C812F933F922F92FF92EF928FE701
:1025400096E09F938F930E94E0050FB6F894DEBF4C
:102550000FBECDBF9601452D642DC1010E9498117B
:102560009FEFE91AF90A8D819E81A80EB91E93E0AA
:10257000C90ED11C2EE0E216F10471F60E940A1178
:102580008091640400FB87F9809364048091650462
:102590008078902F9695892B10FB87F9809365049E
:1025A00040926604509267048F81882321F16091E4
:1025B00064047091650480916604909167040E94A0
:1025C0007611809167041F928F93809166041F9209
:1025D0008F9380916404881F8827881F90916504D9
:1025E000292F220F822B97FB992790F99F938F9386
:1025F0008AE596E009C01F925F921F924F92117078
:102600001F930F9383E396E09F938F930E94E005BF
:102610000FB6F894DEBF0FBECDBF27960FB6F89465
:10262000DEBF0FBECDBFDF91CF911F910F91FF9005
:10263000EF90DF90CF90BF90AF909F908F907F9062
:102640006F905F904F903F902F9008959091640409
:1026500090FF66C09178811102C0926007C08532F8
:1026600010F0986403C08F73880F982B90936404C4
:10267000662399F06091640470916504809166040A
:10268000909167040E9476118091640486958F73FF
:102690001F928F9387E196E008C08091640486952D
:1026A0008F731F928F9389EF95E09F938F930E9472
:1026B000E0050F900F900F900F9060916404669565
:1026C0006F7370E04BE050E083E493E00E945C3273
:1026D000892B19F00E94FB100FC081E080936904E0
:1026E0008091140480FF08C088EE95E09F938F933B
:1026F0000E94E0050F900F9080916404881F882746
:10270000881F90916504392F330F97FB992790F913
:1027100020E04091670460916604832B0C940C12B6
:10272000089561E00C9426138091640486958F735C
:10273000815009F484E261E00C94261380916404D2
:1027400086958F738F5F853208F081E061E00C948D
:102750002613CF93DF9300D01F92CDB7DEB7209121
:10276000640420FF0AC09E012F5F3F4F0E94981112
:102770004B8169818A810E9426110F900F900F90E2
:10278000DF91CF91089581E08093B70368E070E016
:1027900083E093E00C940C2081E08093B80368E020
:1027A00070E083E892E00C940C20609186046160F4
:1027B0006093860487E090E00E94842D62E070E0E0
:1027C00083E692E00C940C200E94042A811102C03E
:1027D0000E940F2A87E090E00E94702D809386046B
:1027E00080918704811103C081E0809387048091E8
:1027F000860480FF06C063E070E08BE492E00C94F6
:102800000C2008958091140480FF08C083ED94E0AB
:102810009F938F930E94E0050F900F908091870403
:10282000811102C00E94E4131092F6031092F50386
:102830001092840410928504E5EDF3E0A5ECB3E07A
:1028400011921192119211921D921D9283E0E53F17
:10285000F807B1F708958091B80381110C94021420
:1028600008950E942B141092B80368E070E083EC86
:1028700092E00C940C2062E070E083E792E00E940A
:102880000C202FEF81EE94E0215080409040E1F742
:1028900000C000000E940214609186046E7F609365
:1028A000860487E090E00C94842DCF92DF92EF9223
:1028B000FF920F931F93CF93DF93682F70E06554BF
:1028C0007109072E000C880B990B0E940E2F20E037
:1028D00030E040E451E40E942A2E9B01AC0160E00C
:1028E00070E080E090E40E94CD3020E030E04CEDDC
:1028F00053E40E9460306B017C018091140480FFDE
:1029000010C0C701B6010E94D62E7F936F938BEB48
:1029100094E09F938F930E94E0050F900F900F908B
:102920000F9080918504882309F46CC080918704FE
:10293000811102C00E94E41305EF13E0C7E0D0E06C
:10294000A7019601F80192918291729162918F0193
:102950000E94252E811131C0FE01EE0FFF1FEE0FE8
:10296000FF1FEB52FC4F1082118212821382DE0194
:10297000AA0FBB1FAB53BC4F11961C921E92C730BF
:10298000D105E9F0219644815581668177814083A4
:102990005183628373831482158216821782129682
:1029A0008D919C91139711969C938E9313961C92E4
:1029B0001E92129734961296E2CF219708F68091D4
:1029C000F5039091F603019797FD05C09093F603E8
:1029D0008093F50304C01092F6031092F5038091E2
:1029E000F5039091F6032091C3033091C403281797
:1029F000390724F01092C4031092C303892B11F4F9
:102A000010928504DF91CF911F910F91FF90EF906D
:102A1000DF90CF900895CF92DF92EF92FF92682FD0
:102A200070E065547109072E000C880B990B0E9409
:102A30000E2F20E030E040E451E40E942A2E9B015A
:102A4000AC0160E070E080E090E40E94CD3020E0D6
:102A500030E04CED53E40E9460306B017C018091CA
:102A6000140480FF15C01F928FE08F93C701B60139
:102A70000E94D62E7F936F938CE994E09F938F935F
:102A80000E94E0050F900F900F900F900F900F9005
:102A900080918704811102C00E94E4138091860412
:102AA00080FF34C08091F5039091F603089774F588
:102AB0008091840481110E94021481E08093850436
:102AC00020E030E0A901C701B6010E94E52F1816E9
:102AD000ECF48091F5039091F603FC01EE0FFF1FDB
:102AE000EE0FFF1FEB52FC4FC082D182E282F382D5
:102AF000FC01EE0FFF1FEB53FC4F2FE030E0318362
:102B0000208301969093F6038093F503FF90EF9056
:102B1000DF90CF9008952F923F925F926F927F92B5
:102B20008F929F92AF92BF92CF92DF92EF92FF92DD
:102B30000F931F93CF93DF938EE7282E83E0382ED9
:102B4000ADEFB3E095E0892E94E0992E712C61E011
:102B500070E07D01AD90BC90119711961C921E9271
:102B6000E10189911E01E82FE295EF70F0E021A1CB
:102B70008F70AB0102C0440F551F8A95E2F7CA015E
:102B8000242B21A322A1642E6094262122A350EAA3
:102B90005A95F1F702E813E040E050E0E80159905F
:102BA0008E01252D22952F7030E0E90128A1CD90CE
:102BB000DC90119730E0D52DDF7002C03595279558
:102BC000DA95E2F720FD08C09B01042E02C0220F17
:102BD000331F0A94E2F702C020E030E0C22AD32A71
:102BE0001196DC92CE924F5F5F4F4C305105B1F69B
:102BF00091A1692261A292A1892B82A3129681E000
:102C0000F701208131812A153B0509F480E0782AFB
:102C10008A169B0609F09DCF772049F081E08093CA
:102C2000C2030E94A8299093C1038093C00380919E
:102C3000C203882351F18091C0039091C1030E9487
:102C40007E29069710F18091FD039091FE039093E9
:102C50000C0480930B048091FF03909100049093E7
:102C60000E0480930D0480910104909102049093CE
:102C7000100480930F0480910304909104049093B6
:102C80001204809311041092C2038091B40388232C
:102C900009F442C08091B0039091B103009781F490
:102CA0000E94A8299093B1038093B0032091B203AE
:102CB00030E02115310571F48091B30390E00BC031
:102CC0000E947E29209101023091020228173907C3
:102CD00038F322C0C9010197F901E056FC4FC081C9
:102CE0002091B803222331F0FC01E056FC4F808193
:102CF0000E9455148091B803882319F08C2F0E94EC
:102D00000B158091B20390E001966091B30370E0DF
:102D10000E9406328093B20381E0DF91CF911F9130
:102D20000F91FF90EF90DF90CF90BF90AF909F906A
:102D30008F907F906F905F903F902F900895CF93EA
:102D4000DF9320E3829FC0011124FC013CE0739FCC
:102D5000E00DF11D1124E60FF11DEE0FFF1FEA51EA
:102D6000FE4FC591D491CE01C238D10549F1B0F4DE
:102D7000C133D10509F464C048F4C932D10509F45E
:102D800058C0CA32D10509F462C068C0C533D10544
:102D900009F448C0C933D10599F060C0C33ED105DC
:102DA00041F138F4C03ED10591F0C23ED105B1F0F9
:102DB00055C0C63ED10521F1C73ED10561F14EC0D7
:102DC0002091050420FD46C221FD44C245C2209148
:102DD000050420FF41C289E390E03EC22091050432
:102DE00022FF3AC28091050484FDE6C183EE90E0A3
:102DF00033C28091050482FFF5CF82EE90E02CC2B1
:102E00002091050423FF28C28091050484FDD4C1CC
:102E100087EE90E021C28091050483FFF5CF86EE16
:102E200090E01AC22091050425FF16C289E290E0C5
:102E300013C22091050425FF0FC285E390E00CC268
:102E40002091050426FF08C28AE290E005C2209185
:102E5000050426FF01C281E390E0FEC1C11541E5F2
:102E6000D40708F047C0C11550E5D50708F03CC1AC
:102E7000C83ED10520F5C03ED10508F0EDC1C83AE5
:102E8000D10570F4C53AD10508F0AEC0C130D10506
:102E900009F4E2C108F490C1249708F48DC1DCC1A3
:102EA000CF3BD10508F4ABC0C03CD10508F484C1C8
:102EB000CE01880F991FFC01E45EFC4F06C1C115CD
:102EC00020E3D20788F4C11530E2D30708F0F6C03A
:102ED000C03FD10508F470C1CF3FD10511F008F013
:102EE000BBC1CE019065B8C1C11540E4D40708F458
:102EF000EFC0F6C0C11559E5D50758F5C11588E5ED
:102F0000D80708F045C1C11524E5D20778F4C115EA
:102F100033E5D30708F020C1C11542E5D40708F016
:102F200004C19C2F8827816F906A96C1C11555E511
:102F3000D50708F428C1C11586E5D80708F03CC1BB
:102F40008C2F0E9402108F7190E0982F882790623A
:102F500083C1CD3B2CE5D20709F425C108F5CB3B55
:102F60004CE5D40709F419C108F01AC1C1158AE566
:102F7000D80708F021C18C2F8F700E940210FE012B
:102F800094E0F695E7959A95E1F7EF70F0E0FE2F63
:102F9000EE27F06A8F70806E9F01282BC9015CC1FB
:102FA000C03C2CE5D20709F404C160F4CE3B4CE5EB
:102FB000D40709F4FBC0CF3BDC4509F0FDC080E03D
:102FC00092ED4AC1CE0190568115904208F0F4C0AE
:102FD0008D2F8F710E940210FE01FF27F0628F710A
:102FE000AF01582BCA0138C1C53AD10509F4E7C071
:102FF000C63AD10509F0E6C082E890E42DC1C83A8E
:10300000D10509F4E2C0C93AD10509F4E1C0CA3AD0
:10301000D10509F4E0C0CB3AD10509F4DFC0CC3AC0
:10302000D10509F4DEC0CB3BD10509F4DDC0CC3BB2
:10303000D10509F4DCC0CD3AD10509F4DBC0C03BB1
:10304000D10509F4DAC0CE3AD10509F4D9C0CF3A96
:10305000D10509F4D8C0C13BD10509F4D7C0C23BA2
:10306000D10509F4D6C0C33BD10509F4D5C0C43B92
:10307000D10509F4D4C0C53BD10509F4D3C0C63B82
:10308000D10509F4D2C0C73BD10509F4D1C0C83B72
:10309000D10509F4D0C0C93BD10509F4CFC0CD3B5F
:1030A000D10509F4CEC0CE3BD10509F4CDC0CA3B51
:1030B000D10509F4CCC080E094E4CEC0CE019F706D
:1030C000FC01EE0FFF1FE456FB4F85919491C4C0A5
:1030D000CE019927D3FF02C0986CBEC0906CBCC0D3
:1030E000CE019F70906AB8C0CE0174E09695879526
:1030F0007A95E1F7282F23703C2F337081E090E020
:1031000002C0880F991F3A95E2F79C68AC01522BD8
:103110009A018C2F8F70E82FE695E69550E2E59F97
:10312000C0011124822B932B97C09E01237033275B
:1031300081E090E0AC0102C0440F551F2A95E2F7F0
:103140009A01EC2FE695E69550E2E59FC001112427
:10315000822B932B9C6880C09E012370332781E0D3
:1031600090E0AC0102C0440F551F2A95E2F79A0186
:10317000EC2FE695E69550E2E59FC0011124822BE5
:10318000932B9A6869C09C2F8827846F906A64C0CB
:103190009C2F8827806F906A5FC080E094ED5CC0B0
:1031A00080E095ED59C080E091ED56C080E090ED53
:1031B00053C080E093ED50C080E090E04DC081E8C6
:1031C00090E44AC083E890E447C082EE94E444C0AF
:1031D00089EE94E441C08AEE94E43EC085EB94E429
:1031E0003BC086EB94E438C083EB94E435C084EBB9
:1031F00094E432C087EB94E42FC08CEC94E42CC0B0
:103200008DEC94E429C083E895E426C08AE895E42F
:1032100023C082E995E420C084E995E41DC081E2E1
:1032200096E41AC083E296E417C084E296E414C0E0
:1032300085E296E411C086E296E40EC087E296E449
:103240000BC08FE694E408C080E794E405C08AE2EE
:1032500096E402C080EE90E0DF91CF910895CF9286
:10326000DF92EF92FF92853030F4811105C090918A
:1032700080009F7D04C084E09091800090629093D4
:103280008000282F30E0AFEFBFEF0E944232DC0118
:10329000CB0142E0B695A795979587954A95D1F7CA
:1032A0008C3744E1940728F469E070E00E94F23121
:1032B00027C08A50974DAF4FBF4F6627782F892F71
:1032C0009A2F25EF38E241E050E00E941A3269015E
:1032D0007A01CA01B9010E94D6319B01AC01C70134
:1032E000B6010E94D631BB27A92F982F872F0097B0
:1032F00021E0A207B10511F0BC0102C06FEF7FEF22
:1033000070938B0060938A00FF90EF90DF90CF90D6
:1033100008959FB7F89410926A049FBF90917A0421
:10332000943009F057C09091E9009F703091EC0003
:10333000232F217030FD20E8922B23E02093E90019
:103340002091EB0020FF43C02091EE0027FF3FC0FB
:103350002091FC03222321F02091E80025FF37C0B3
:103360001092FC0326E03091E80035FD15C0309145
:103370007A04343061F53091EB0035FD28C02150DE
:1033800021F481E08093FC0322C0EFE9FFE0319754
:10339000F1F700C00000E7CF8093F1008091E800D2
:1033A00085FD0AC08091E80080FFFCCF8091E80095
:1033B0008E778093E80006C08FB7F89421E02093C1
:1033C0006A048FBF9F709093E90080E008959F701A
:1033D0009093E9008FEF0895CF93DF9300D01F9271
:1033E000CDB7DEB79C019091FB03911105C0809190
:1033F0007A04843049F504C0923011F0943021F5FC
:1034000084E089833B832A8382E08093E9008FEF05
:103410009091E800815095FD06C095ED9A95F1F7E1
:1034200000008111F5CF8091E80085FF0DC040E0DC
:1034300050E063E070E0CE0101960E943E20809152
:10344000E8008E778093E8000F900F900F90DF9147
:10345000CF910895CF93DF93CDB7DEB760970FB6C6
:10346000F894DEBF0FBECDBF84B7877F84BF0FB691
:10347000F894A89580916000886180936000109214
:1034800060000FBE80E8809361001092610085B7F4
:10349000806885BF85B7806885BF0E9487230E94AA
:1034A000A6238091E20084608093E20089E899E19C
:1034B00090939F0380939E03789480917A0488234D
:1034C000A1F01091E9001F709091EC00892F81709C
:1034D00090FD80E8182B1092E9008091E80083FDB0
:1034E0000E946A201F701093E90082E084BD93E07F
:1034F00095BD9AEF97BD80936E00AEE7B3E041E0D3
:1035000050E08D91E82FE295EF70F0E091A18F707F
:103510009A0101C0220F8A95EAF7822F80958923AC
:1035200081A323E0A238B20761F7A2E8B3E041E04B
:1035300050E08D91E82FE295EF70F0E021A18F70BF
:10354000BA0102C0660F771F8A95E2F7CB01962F6A
:103550009095922391A392A1892B82A373E0AE3818
:10356000B70739F71092FE031092FD0310920C0476
:1035700010920B04109200041092FF0310920E049C
:1035800010920D0410920204109201041092100483
:1035900010920F041092040410920304109212046B
:1035A000109211040E94042A811102C00E940F2A65
:1035B000269A2E9882E28093800089E18093810090
:1035C0008FEF9FEF90938700809386000E94612A7F
:1035D0000E94E4136E9A769A0E94042A811102C016
:1035E0000E940F2A82E090E00E94702D80931404C4
:1035F00084E090E00E94702D90E090930604809308
:10360000050483E090E00E94702D682F70E080E058
:1036100090E00E940F2C0E94612A80910704811182
:10362000ECC08091140481608093140482E098E0DF
:103630009F938F930E94E005809114040F900F9048
:1036400080FF08C08CEE97E09F938F930E94E00567
:103650000F900F900E94042A811110C080911404D1
:1036600080FF08C084EC97E09F938F930E94E00551
:103670000F900F900E940F2A0E94881188E090E01E
:103680000E94782D609364047093650480936604AF
:10369000909367046E77D1F48091140480FF08C082
:1036A0008BE797E09F938F930E94E0050F900F9018
:1036B0000E94881188E090E00E94782D6093640455
:1036C0007093650480936604909367040E94401190
:1036D0008091140480FF08C084E697E09F938F9345
:1036E0000E94E0050F900F908091140480FF0FC09E
:1036F0008091640481701F928F9387E497E09F9379
:103700008F930E94E0050F900F900F900F90809183
:10371000140480FF10C08091640486958F731F92FB
:103720008F938CE297E09F938F930E94E0050F9018
:103730000F900F900F908091140480FF19C080911A
:103740006404881F8827881F90916504292F220F01
:10375000822B97FB992790F99F938F9382E197E0B3
:103760009F938F930E94E0050F900F900F900F9002
:103770008091140480FF0EC0809166041F928F9385
:1037800088EF96E09F938F930E94E0050F900F9033
:103790000F900F908091140480FF0EC080916704F9
:1037A0001F928F938EED96E09F938F930E94E0057A
:1037B0000F900F900F900F908091140480FF0EC017
:1037C000809168041F928F9382EC96E09F938F9371
:1037D0000E94E0050F900F900F900F9081E0809372
:1037E00069048091640480FF05C0869560E08F7352
:1037F0000E94261381E08093070480E593E0909374
:1038000009048093080480E798E00E944705B8E621
:103810006B2E7724739480917A04853009F043C02D
:103820008CE698E00E94470580917A04843039F153
:1038300010920A0420E488E190E00FB6F894A8956D
:10384000809360000FBE2093600080E00E942F19DB
:1038500083B7817F846083BF83B7816083BF78949F
:10386000889583B78E7F83BF0FB6F894A895809113
:103870006000886180936000109260000FBE8091AC
:103880007904882309F4C7CF0E948B15EBE0F4E09C
:1038900083E194E021913191232B09F0A7C38E1786
:1038A0009F07C1F7B8CF0E948B15A5E14A2EA4E06F
:1038B0005A2E8BE094E09F878E8700E010E0088B03
:1038C000EE85FF85A190B190FF87EE87F201C19050
:1038D000D1902F01CA24DB24C114D104B1F40F5FAD
:1038E0001F4F0430110559F78FEF8E838F83188691
:1038F0000E94A8298160782F9A8789874E815F81ED
:1039000068858A850E9425107DC08091140481FD00
:1039100003C080E090E047C089E298E00E9447053C
:10392000FBE08F2EF4E09F2EE12CF12CFF92EF9222
:1039300024E238E03F932F930E94E00581E298E073
:103940000E944705F40180812180F2E08F0E911CD6
:103950000E94802A382E822D0E94802A232D30E05A
:10396000322F2227A901482BCA019F938F936BE125
:1039700078E07F936F930E94E00589E198E00E94D0
:1039800047059FEFE91AF90A0FB6F894DEBF0FBE9C
:10399000CDBFF4E0EF16F10449F6BBCF01968C30B1
:1039A000910509F49CCFEE24E394F12C082E02C07B
:1039B000EE0CFF1C0A94E2F796012E213F21232BE7
:1039C00069F3898328892A83AE20BF2081E0AB2850
:1039D00009F480E08B830E94A8298160782F9D8361
:1039E0008C8349815A816B818D810E942510000F43
:1039F000111FF801EB5EFB4F80819181E826F926CB
:103A0000F182E0820E94EF1090911304891739F13E
:103A10000E94EF10182F809313048091140482FFEA
:103A20001EC080FF04C087E498E00E944705809193
:103A3000140480FF0CC01F921F9382E498E09F93B0
:103A40008F930E94E0050F900F900F900F90809140
:103A5000140480FF04C080E498E00E944705809130
:103A60006904882309F4D7CE80916404E82FE69591
:103A7000EF739EE39E0F9F73943008F055C0E250A1
:103A8000F0E0E65AF74FD49080911E0490911F0405
:103A90000E947E29ED2DF0E08E179F0708F4BBCE23
:103AA0000E94A82990931F0480931E0460911D0416
:103AB00070E080E090E00E940E2F20E030E04FE7C1
:103AC00053E40E942A2E2BED3FE049E450E40E948B
:103AD00060300E941D310E94A42E2BE43AE34EE296
:103AE0005FE30E94B82D20EF3BEF48ED52E40E94C7
:103AF00060300E94DD2E462F80916404881F882745
:103B0000881F90916504292F220F97FB992790F920
:103B100060916604822B0E94A91380911D0490E09D
:103B2000019680931D0477CE9AE39E0F9F73933086
:103B300070F5E650F0E0E25AF74FD49080912204FD
:103B4000909123040E947E29ED2DF0E08E179F07AF
:103B500008F461CE0E94A829909323048093220444
:103B60004091670460916604809120049091210443
:103B70000E94A91380912004909121040196B30121
:103B80000E94F231909321048093200444CE97E365
:103B90009E0F9F73963008F04EC057EFD52EDE0E65
:103BA000ED2DE695F0E0EF59F74F14918091260442
:103BB000909127040E947E29E12FF0E08E179F0745
:103BC00008F429CE0E94A829909327048093260404
:103BD00046E3E42E44E0F42E00E010E0809124045B
:103BE00090912504800F911FB3010E94F23197013B
:103BF00040916704609166040E949811075E1F4F10
:103C000033E0E30EF11C0E3541E0140739F70E9452
:103C10000A118091240490912504D0FE06C00196DB
:103C200068E671E00E94F23101C00197909325048B
:103C300080932404F0CD91E39E0F9F73963008F09B
:103C400077C0EF50E0FF03C0BB24BA9402C0BB248E
:103C5000B394E695F0E0EC59F74F14918091290464
:103C600090912A040E947E29E12FF0E08E179F0791
:103C700008F4D1CD0E94A82990932A0480932904A6
:103C800006E314E0E12CF12CF8011182108212827B
:103C900034E0C32ED12CA12C809128048A0D87FDFD
:103CA000825F082E000C990BE816F906E9F4809162
:103CB00067048C9DA0018D9D500D1124559547954D
:103CC0005595479580916404881F8827881F909197
:103CD0006504592F550F97FB992790F9980160912A
:103CE0006604852B0E949811AB0CF1E0CF1AD10825
:103CF00099F62FEFE21AF20A0D5F1F4F3EE0E3162E
:103D0000F10409F0C1CF0E940A118091280441E01A
:103D1000B41208C0811102C08DE001C081508093AF
:103D2000280479CD90E00196B7010E940632F7CFC2
:103D30009BE29E0F9F73933008F06EC0E551F0E058
:103D4000E959F74FD49080912C0490912D040E9452
:103D50007E29ED2DF0E08E179F0708F45CCD0E94C0
:103D6000A82990932D0480932C0406E314E080E6A8
:103D700094E0F80111821082128233968E179F0709
:103D8000C9F7E12CF12C80912B04082E000C990B23
:103D9000E816F906ECF080914F03082E000C990B01
:103DA0008E159F05ACF080916404881F8827881FBA
:103DB00090916504592F550F97FB992790F9980119
:103DC0004091670460916604852B0E94981104C09D
:103DD000F801118210821282FFEFEF1AFF0A0D5FC5
:103DE0001F4F2EE0E216F10471F60E940A11809135
:103DF0004E0390912B04980F90932B0420914F0326
:103E0000280F20934F0312161CF49D300CF403CDA1
:103E1000819580934E03FFCC8E77803309F042C0AA
:103E200080913004909131040E947E29883E934015
:103E300008F4F1CC0E94A8299093310480933004B7
:103E400000912E0410912F040F5F1F4F0170112756
:103E500010932F0400932E0486E3E82E84E0F82EBE
:103E6000D12C98E7C92E8D2D8695A801480F511D9C
:103E7000CA01817099279701409167046091660497
:103E8000FC01CE9EC001CF9E900D11240E9498117E
:103E9000D394F3E0EF0EF11C2EE0D212E4CF0E9497
:103EA0000A11B9CC863409F047C08091340490914E
:103EB00035040E947E29EAE6F8E0259134918217C4
:103EC000930708F4A8CC8091330481110CC09E01A3
:103ED000255F3F4F4FEF6FEF80E090E00E94981119
:103EE0008C85809333040E94A82990933504809395
:103EF000340480913204813051F028F0823061F432
:103F0000409133040AC08091330440E007C06091BF
:103F1000330440E080E003C040E080E060E00E94C5
:103F200026118091320490E0019663E070E00E94D7
:103F30000632809332046FCC883409F06CCC8091C7
:103F40006204909163040E947E29843F914008F4AA
:103F500062CC0E94A829909363048093620406E3D4
:103F600014E0E12CF12C809164049091650420917F
:103F700060043091610447E0E416F1041CF4232B43
:103F800079F002C0232B61F4881F8827881F592FDE
:103F9000550F97FB992790F99801409167040AC043
:103FA000881F8827881F592F550F97FB992790F94D
:103FB000980140E060916604852B0E9498115FEFA4
:103FC000E51AF50A0D5F1F4F6EE0E616F10459F68B
:103FD0000E940A11809160049091610401968170A1
:103FE0009927909361048093600415CC80E189BD8A
:103FF00082E189BD09B400FEFDCF8091D8008F7D9C
:104000008093D8008091E00082608093E0008091EE
:10401000E00081FDFCCFFFCB80918704811102C0BD
:104020000E94E4138091860480FF08C0809185047B
:1040300081110E94021481E08093840408952EB1BE
:104040002B7F3EB134604FB7F894FC01680F791FA5
:10405000E617F70789F0819198E03EB9000000C0AB
:1040600087FF2EB9880F000000C000C000C02EB925
:1040700000C09A9591F7ECCF4FBF0895EF92FF9251
:104080000F931F93CF93DF937C018B010E948B2CA6
:10409000811119C0E70101151105A1F08091E80017
:1040A00085FD0AC08091E8008E778093E8000E9429
:1040B0008B2C882381F307C089918093F1000150F4
:1040C0001109E9CF80E0DF91CF911F910F91FF900F
:1040D000EF9008951F93CF93DF93CDB7DEB7AA97E4
:1040E0000FB6F894DEBF0FBECDBFECE7F4E084E876
:1040F00094E02091F10021938E179F07D1F78091D2
:104100007D04833009F460C030F4813071F0823076
:1041100009F49CC0B3C08A3009F488C08B3009F41C
:104120006BC0893009F0AAC020C080917C04813A1C
:1041300009F0A4C08091E800877F8093E800809117
:10414000800490918104892B21F468E080E794E059
:1041500003C060E080E090E070E00E94122D80914A
:10416000E8008B778093E80089C080917C048132DD
:1041700009F084C08091800490918104029708F036
:104180007DC08091E800877F8093E8008091E800FF
:1041900082FD05C080917A048111F8CF6FC0209113
:1041A000F3008091F20090E0922B029729F4809125
:1041B000F1008B7F813021F48091F10080936F04B6
:1041C0008091E8008B7756C080917C04813A09F099
:1041D00055C08091800490918104892B09F04EC0D4
:1041E0008091E800877F8093E8008091E80080FF5D
:1041F000FCCF80915A0339C080917C048132F1F563
:104200008091800490918104892BC1F58091E80010
:10421000877F8093E8000E94BE2C80917E0480936B
:104220005A0310926D040E943F2728C080917C049D
:10423000813221F58091E800877F8093E8000E9419
:10424000BE2C80917F0480936E0418C080917C0402
:10425000813AA1F48091E800877F8093E800809103
:10426000E80080FFFCCF80916E048093F100809184
:10427000E8008E778093E8000E94BE2C8091E800D1
:1042800083FFE3C180917C0490917D04492F50E02D
:104290004A30510508F0D9C1FA01E557FF4F0C9497
:1042A0003C32803821F0823809F0CFC108C08091BB
:1042B000780490917904992389F082600FC08091ED
:1042C00080048F70873008F0C0C18093E90080912E
:1042D000EB0085FB882780F91092E9009091E800B7
:1042E000977F9093E8008093F1001092F1007BC1DA
:1042F000282F2D7F09F0A9C1882319F0823061F0A1
:10430000A4C180917E04813009F09FC1933009F0EF
:1043100080E0809379042EC080917E0481112AC0B0
:10432000809180048F702FEF280F263008F08DC108
:104330008093E9002091EB0020FF1CC0933021F412
:104340008091EB00806214C09091EB00906190939B
:10435000EB0021E030E0A90102C0440F551F8A950F
:10436000E2F74093EA001092EA008091EB00886047
:104370008093EB001092E9008091E800877F8093A2
:10438000E8000E94BE2C61C181115FC110917E04C2
:104390001F778091E3008078812B8093E3008091E8
:1043A000E800877F8093E8000E94BE2C8091E8009F
:1043B00080FFFCCF8091E30080688093E3001111BF
:1043C00002C082E001C083E080937A043EC180583D
:1043D000823008F03AC120917E0430917F042C3D58
:1043E00053E0350779F583E08A838AE289834FB702
:1043F000F894DE01139620E03EE051E2E32FF0E076
:1044000050935700E49120FF03C0E295EF703F5FA7
:10441000EF708E2F90E0EA3010F0C79601C0C09682
:104420008D939D932F5F243149F74FBF8091E80012
:10443000877F8093E8006AE270E0CE0101960E94D7
:10444000122DC0C08091800490918104432F552784
:1044500043305105B1F068F44130510509F404C10D
:104460004230510509F0F1C08BE590E0EDE2F9E052
:1044700057C04132510589F14232510509F43CC01F
:10448000E4C0C901992781309105B9F070F08230FC
:104490009105D9F0039709F0D8C0EAE9F9E0E49171
:1044A0008E2F90E0EAE9F9E038C0E6ECF9E0E4911B
:1044B0008E2F90E0E6ECF9E030C0E4EBF9E0E49117
:1044C0008E2F90E0E4EBF9E028C0E0EAF9E0E49117
:1044D0008E2F90E0E0EAF9E020C08330910508F0EB
:1044E000B4C0880F991FFC01E956FC4F0190F08180
:1044F000E02D89E090E014C08330910508F0A5C05C
:10450000FC01EE0FFF1FEF56FC4F0190F081E02DF4
:10451000DC01A257BC4F8C9190E0009709F495C044
:104520002091E800277F2093E800209182043091B9
:1045300083042817390708F4C90140E0009789F17E
:1045400020917A04222309F43DC02530D9F120912D
:10455000E80023FD37C02091E80022FD2FC0209104
:10456000E80020FFEBCF4091F3002091F20030E013
:10457000342B009759F02830310540F44491409392
:10458000F100319601972F5F3F4FF3CF41E0283084
:10459000310509F040E02091E8002E772093E800F3
:1045A000CDCF4111CDCF0AC080917A04882351F03C
:1045B000853041F08091E80083FD04C08091E800DF
:1045C00082FFF2CF8091E8008B778093E8003DC0B6
:1045D0008038D9F58091E800877F8093E80080914A
:1045E0007B048093F1008091E8008E77C8CE811122
:1045F0002CC080917E0490917F04992702972CF51E
:104600008091E800877F8093E80010917E041093EA
:104610007B040E94BE2C111106C08091E30087FD2F
:1046200002C081E001C084E080937A0442E061EC42
:1046300081E00E94DD2C42E261EC82E00E94DD2CF0
:1046400042E261EC83E00E94DD2C8091E80083FF70
:1046500010C08091E800877F8093E8008091EB0094
:1046600080628093EB0005C082E190E0E8E8F9E029
:1046700057CFAA960FB6F894DEBF0FBECDBFDF911D
:10468000CF911F9108951F920F920FB60F92112490
:104690002F933F934F935F936F937F938F939F934A
:1046A000AF93BF93CF93DF93EF93FF93C091E90054
:1046B000CF708091EC00D82FD17080FDD0E810929F
:1046C000E9008091F000877F8093F00078940E9449
:1046D0006A201092E9008091F00088608093F000D9
:1046E000CD2BCF70C093E900FF91EF91DF91CF9177
:1046F000BF91AF919F918F917F916F915F914F91FA
:104700003F912F910F900FBE0F901F901895E8EDDD
:10471000F0E080818E7F80831092E2001092DA00B8
:104720001092E100A0EEB0E08C9181608C938081CA
:104730008F77808319BCA7EDB0E08C918E7F8C932E
:1047400080818F7E808310926C040895CF92DF92D7
:10475000EF92FF920F931F93CF93DF93C8EDD0E0BA
:1047600088818F7E8883E7EDF0E08081816080839F
:1047700084E082BF81E080936C0488818E7F88838F
:1047800002EE10E0F80110821092DA0081EEC82EDD
:10479000D12CF601108288818F7788838881806888
:1047A000888388818F7D888319BC10927A04109247
:1047B0007B04109279041092780490EEE92EF12C8B
:1047C000F70180818B7F808388818160888342E0CC
:1047D00060E080E00E94DD2CF60180818E7F808386
:1047E000F801808181608083808188608083F70107
:1047F00080818E7F8083888180618883DF91CF91E3
:104800001F910F91FF90EF90DF90CF9008951F922E
:104810000F920FB60F9211242F933F934F935F93F4
:104820006F937F938F939F93AF93BF93EF93FF9378
:104830008091E10082FF49C08091E20082FF45C083
:104840008091E1008B7F8093E10020916B042F5FCA
:10485000822F62E30E94E631992319F020936B04C2
:1048600034C010926B0480916A04882371F18091A6
:104870007A04843041F58091E9008F702091EC003A
:10488000922F917020FD90E8892B93E09093E9009E
:104890009091EB0090FF14C09091EE0097FF10C034
:1048A0009091E80095FF03C01092F100F9CF90912C
:1048B000E80090FF05C09091E8009E779093E80093
:1048C0008F708093E90010926A048091DA0080FF73
:1048D00032C08091D80080FF2EC08091DA008E7F98
:1048E0008093DA008091D90080FF1CC080E189BDEF
:1048F00082E189BD09B400FEFDCF81E080937A0496
:1049000089E199E00E94470580916C04811113C0F0
:104910000E9487230E94A6238091E20084608093F6
:10492000E20009C019BC10927A048DE199E00E945E
:10493000470510926C048091E10080FF1BC08091BC
:10494000E20080FF17C08091E2008E7F8093E2003A
:104950008091E20080618093E2008091D8008062C3
:104960008093D80019BC85E080937A0481E299E0B5
:104970000E9447058091E10084FF3AC08091E200E7
:1049800084FF36C080E189BD82E189BD09B400FEA3
:10499000FDCF8091D8008F7D8093D8008091E10079
:1049A0008F7E8093E1008091E2008F7E8093E20011
:1049B0008091E20081608093E20080917B048823F3
:1049C00011F084E007C08091E30087FD02C081E020
:1049D00001C083E080937A0485E299E00E94470554
:1049E00010926D040E943F270E94612A0E94EF10DE
:1049F0008091E10083FF2BC08091E20083FF27C0FC
:104A00008091E100877F8093E10082E080937A04C7
:104A100010927B048091E1008E7F8093E100809171
:104A2000E2008E7F8093E2008091E20080618093BB
:104A3000E20042E060E080E00E94DD2C8091F00026
:104A400088608093F00089E299E00E944705FF9119
:104A5000EF91BF91AF919F918F917F916F915F91F6
:104A60004F913F912F910F900FBE0F901F9018956F
:104A70000E94442B292F2F70E92FE295EF704E2FC3
:104A800050E0FA013297EE30F105B8F4EB56FF4FE3
:104A90000C943C32803F99F018F4803E70F40FC0C3
:104AA000843F59F40CC0803E50F0813F31F407C080
:104AB000822F869586958695089580E0089581E0F9
:104AC0000895AF92BF92CF92DF92EF92FF920F9331
:104AD0001F93CF93DF93CDB7DEB761970FB6F894EE
:104AE000DEBF0FBECDBF8C0185E0F801DE011D9653
:104AF00001900D928A95E1F7D8013C9111962C9185
:104B000011971296EC9050919004609191048091CD
:104B1000930490919404009731F06F3F31F441E099
:104B20005F3F19F403C041E001C040E0B42FB17011
:104B3000BB2E40FD43C1F801C380D480A0909204F5
:104B4000AA2009F4E2C040919504C816D90628F0BD
:104B5000D601A81BB90BCD0104C0809590958C0D92
:104B60009D1DFF24F394883C910548F0F12C407F73
:104B700009F090C080E994E00E94E90517C1842FF4
:104B8000807F09F052C0621312C0531310C0FE2C74
:104B9000E1100DC04F7040614093950480E994E0AE
:104BA0000E94E90580919504F801858348C1CD28CC
:104BB00031F02F3F31F481E03F3F19F403C081E031
:104BC00001C080E080FD03C081E08E2502C080E04E
:104BD00090E0F82FF170FF2E80FF1CC08091C70479
:104BE0004091960456E0841709F406C190E0589F5E
:104BF000F001599FF00D1124E956FB4F61812613F6
:104C000006C06081361303C06281E61203C00196BC
:104C10008770E9CFFE2CEE2009F411C18091950434
:104C2000816080939504F12C0AC1621308C053136C
:104C300006C0E11004C080919504F80199C03D8739
:104C40002E878D859E850E943825882369F1EE2068
:104C500059F120919504822F82958F7090E00297F0
:104C600074F0809190049091910498878F831986B5
:104C7000DB86CA862C87CE0107960E94E90586E06E
:104C8000F801A0E9B4E001900D928A95E1F70E9445
:104C9000232C0DC0621771F03D872E878D859E8570
:104CA0000E94382581111AC0C8010E94E905FF241D
:104CB000F394C5C05313F0CFE110EECF809195046B
:104CC000F8018583C8010E94E90586E0E0E9F4E087
:104CD000DF011D928A95E9F7FA2CB1C0EE2021F38D
:104CE00020919504822F82958F7090E002973CF27C
:104CF00080919004909191049A8389831B82DD8234
:104D0000CC822E83CE010196B8CFC816D90638F0D2
:104D1000C81AD90AB8ECCB16D10450F007C0809558
:104D200090958C0D9D1D883C910510F0F12C3EC096
:104D3000FE2CEE2009F4B8CF621327C0531325C010
:104D40002091950420FD18C0822F82958F70482FE6
:104D500050E04115510581F0F80125834F30510590
:104D600041F08F5F982F9295907F822F8F70892BC3
:104D70008583C8010E94E90586E0F801A0E9B4E056
:104D800001900D928A95E1F75AC03D872E878D8557
:104D90009E850E943825811172CF80919504816093
:104DA00080939504C8010E94E90549C0E0E9F4E058
:104DB00086E0DF011D928A95E9F741C0EE2009F4F3
:104DC00073CF3D872E878D859E850E943825F82ECE
:104DD000882309F469CF86E0F801A0E9B4E00190E6
:104DE0000D928A95E1F780919004909191040E9430
:104DF000442B0E94232C23C03D872E878D859E85C2
:104E00000E94442B292F22952F70223028F49F7066
:104E100039F0811105C00BC0243028F49F7049F48B
:104E2000805E883020F0C8010E94E905BF2CFB2C71
:104E300006C0D80115969C91907F91F7F8CF8F2DE1
:104E400061960FB6F894DEBF0FBECDBFDF91CF9154
:104E50001F910F91FF90EF90DF90CF90BF90AF9098
:104E600008951092EC041092EB040E94982A80E0BE
:104E700090E00E94D91080E090E00C94C31086E08E
:104E8000EAE8F4E0DF011D928A95E9F70C943127F6
:104E9000882341F0809590916D04892380936D045F
:104EA0000C94982A0895882339F090916D04892BE9
:104EB00080936D040C94982A0895882309F458C0AF
:104EC000682F823869F40E94EF1081FF51C069E3B6
:104ED00088E894E00E94EA290E94982A69E30EC0BB
:104EE000833891F40E94EF1080FF42C063E588E8A8
:104EF00094E00E94EA290E94982A63E588E894E0F9
:104F00000E94DD290C94982A843869F40E94EF10DD
:104F100082FF2EC067E488E894E00E94EA290E949C
:104F2000982A67E4EBCF8CEF860F813A38F380E262
:104F3000860F883070F4677081E090E001C0880FC0
:104F40006A95EAF7809590916D04892380936D04AA
:104F5000D9CF8BE5860F833020F480E090E00C946D
:104F6000D910685A673120F480E090E00C94C310A7
:104F70000895882309F40DC1682F8238B1F40E9486
:104F8000EF1081FD06C169E388E894E00E94EA29F8
:104F90000E94982A2FEF81EE94E0215080409040AB
:104FA000E1F700C0000069E317C08338D9F40E941C
:104FB000EF1080FDEEC063E588E894E00E94EA29E6
:104FC0000E94982A2FEF81EE94E02150804090407B
:104FD000E1F700C0000063E588E894E00E94DD2965
:104FE0000C94982A8438B1F40E94EF1082FDD1C04D
:104FF00067E488E894E00E94EA290E94982A2FEF4B
:1050000081EE94E0215080409040E1F700C0000024
:1050100067E4E2CF8CEF860F813A28F488E894E0C9
:105020000E94EA29DDCF80E2860F883068F467703D
:1050300081E090E001C0880F6A95EAF790916D04D5
:10504000892B80936D04CCCF8BE5860F833070F471
:10505000653A29F0663A31F083E890E005C081E8CE
:1050600090E002C082E890E00C94D91088E5860FA9
:10507000873108F08EC0683A09F445C0693A09F4EE
:1050800045C06A3A09F445C06B3A09F445C06C3A28
:1050900009F445C06B3B09F445C06C3B09F445C0BD
:1050A0006D3A09F445C0603B09F445C06E3A09F415
:1050B00045C06F3A09F445C0613B09F445C0623B05
:1050C00009F445C0633B09F445C0643B09F445C09D
:1050D000653B09F445C0663B09F445C0673B09F4EC
:1050E00045C0683B09F445C0693B09F445C06D3BC8
:1050F00009F445C06E3B09F445C06A3B09F445C05C
:1051000080E090E044C082EE90E041C089EE90E003
:105110003EC08AEE90E03BC085EB90E038C086EB65
:1051200090E035C083EB90E032C084EB90E02FC07C
:1051300087EB90E02CC08CEC90E029C08DEC90E0E7
:1051400026C083E891E023C08AE891E020C082E98C
:1051500091E01DC084E991E01AC081E292E017C09D
:1051600083E292E014C084E292E011C085E292E012
:105170000EC086E292E00BC087E292E008C08FE6A4
:1051800090E005C080E790E002C08AE292E00C94D3
:10519000C3100895089580916F040895CF93DF930D
:1051A00000D01F92CDB7DEB720917A04243031F5BC
:1051B00023E02983805891099B838A8382E080932E
:1051C000E9008FEF9091E800815095FD06C095EDC4
:1051D0009A95F1F700008111F5CF8091E80085FFE5
:1051E0000DC040E050E063E070E0CE0101960E9407
:1051F0003E208091E8008E778093E8000F900F901A
:105200000F90DF91CF910895CF93DF932091FB030F
:10521000211103C020917A0402C0223011F0243001
:1052200039F521E02093E9002FEF3091E80021507B
:1052300035FD06C035ED3A95F1F700002111F5CFA7
:105240002091E80025FF14C0EC0140E050E068E048
:1052500070E00E943E208091E8008E778093E80005
:1052600088E0FE01A0E7B4E001900D928A95E1F795
:10527000DF91CF910895853008F084E0880F9091F8
:10528000F6049170892B8093F6048E7F91E009F4E7
:1052900090E06091F60490FB60F96093F60486E07C
:1052A00090E00E94842D8091F60486950C942F192D
:1052B00078941F920F920FB60F9211248F939F93A1
:1052C000AF93BF938091F2049091F304A091F40402
:1052D000B091F5040196A11DB11D8093F204909345
:1052E000F304A093F404B093F504BF91AF919F91A0
:1052F0008F910F900FBE0F901F901895CF92DF9255
:10530000EF92FF920F931F932FB7F8944091F204FE
:105310005091F3046091F4047091F5042FBF6A0179
:105320007B01EE24FF248C0120E030E0C016D10682
:10533000E206F30610F4415051099A01281B390B7B
:10534000C9011F910F91FF90EF90DF90CF900895CA
:105350002FB7F8948091F2049091F304A091F40493
:10536000B091F5042FBF08951F920F920FB60F92C0
:1053700011248F939F93AF93BF9380910A0481115F
:1053800013C08091F2049091F304A091F404B091C1
:10539000F5044196A11DB11D8093F2049093F3048E
:1053A000A093F404B093F504BF91AF919F918F91B6
:1053B0000F900FBE0F901F9018959C012A5F3F4FD2
:1053C000FC014281461301C01282019682179307A5
:1053D000B9F708959C01FC0132969FEF80E041915E
:1053E000461789F09F3F19F4411101C0982F8F5F34
:1053F0008630A9F79F3F39F0F901E90FF11D97FDBC
:10540000FA9562830895089580E090E00E947E2DD1
:1054100021E08D3E9E4F09F020E0822F08956DEE31
:105420007EEF80E090E00E94A22D60E082E090E0BC
:105430000E94842D60E083E090E00E94842D109211
:10544000EE041092EF041092F0041092F10460E068
:1054500084E090E00E94842D60E085E090E00E946E
:10546000842D60E086E090E00E94842D6FEF87E05D
:1054700090E00E94842D40E050E0BA0188E090E086
:105480000E94962D60E08DE090E00E94842D40E027
:1054900050E0BA0188E190E00E94962D60E087E13B
:1054A00090E00E94842D40E050E0BA018FE090E04F
:1054B0000E94962D40E050E0BA0183E190E00C9408
:1054C000962D0E94042A811102C00E940F2A86E0B4
:1054D00090E00E94702D8093F604282F269530E0EE
:1054E0002530310524F0817088608093F604809126
:1054F000F60480FF02C0869501C080E00C942F194D
:105500008295982F937344E0949F900111248C7C92
:1055100086958695282B822F8575880F2A7A269561
:10552000822B08958091ED0481111092ED0408956D
:10553000EF92FF920F931F93CF9390916D04809100
:10554000EC04892B2091EB04982F922B90938804E4
:105550008091ED04882389F0892B80938804EAE800
:10556000F4E097E080E0915029F021912223D9F3D3
:105570008F5FF9CF81110E94922AE0910804F09187
:1055800009043097C9F10280F381E02D88E894E0A6
:1055900009958091140482FF2FC080FF04C082ED22
:1055A00099E00E94470508E814E0C8E08CECE82E7A
:1055B00089E0F82E8091140480FF0CC0F8018081EE
:1055C0001F928F93FF92EF920E94E0050F900F9031
:1055D0000F900F90C1500F5F1F4FC111EBCF809103
:1055E000140480FF09C08AEC99E0CF911F910F91BC
:1055F000FF90EF900C944705CF911F910F91FF9072
:10560000EF900895BF92CF92DF92EF92FF920F93A7
:105610001F93CF93DF938C01C090E604D090E704F2
:10562000E090E804F090E9048091EE049091EF049A
:10563000A091F004B091F104C82AD92AEA2AFB2AE1
:10564000CFE1D0E0D701C6010C2E04C0B695A795D6
:10565000979587950A94D2F780FD04C0219790F71B
:10566000B12C07C0BC2EB8018C2F0E949F16019749
:10567000A9F38B2DDF91CF911F910F91FF90EF90A8
:10568000DF90CF90BF900895CF93DF93EC010E94FD
:10569000022BBE010E949F16DF91CF9108952CE04E
:1056A000929F800D1124682F669566956695982FB8
:1056B000977085E0689FB001112440E050E080E0E1
:1056C000FB01E40FF51FE853FB4F208130E0092E6A
:1056D00002C0369527950A94E2F721703327042EED
:1056E00001C0220F0A94EAF7822B4F5F5F4F4530CB
:1056F000510531F708952CE0929F800D1124E82F79
:10570000E695E695E695877051E001C0550F8A95BC
:10571000EAF785E0E89FF0011124E853FB4F20E011
:1057200030E070E04081CB01022E02C09695879553
:105730000A94E2F7817081958427852384278193D9
:105740002F5F3F4F2530310569F708956093E604D8
:105750007093E7048093E8049093E9040C94312754
:105760000F931F9341E050E060E070E004C0440FED
:10577000551F661F771F8A95D2F740955095609503
:1057800070958091E6049091E704A091E804B091AF
:10579000E9048A019B01082319232A233B23C90119
:1057A000B8011F910F910C94A62B2091EA048095CB
:1057B00082238093EA04982F977079F430E0482F81
:1057C000082E000C550B2417350739F08595859563
:1057D00085950E94B02B1092EA0408950F931F93B1
:1057E00041E050E060E070E004C0440F551F661FC8
:1057F000771F8A95D2F78091E6049091E704A091F3
:10580000E804B091E9048A019B01082B192B2A2B8B
:105810003B2BC901B8011F910F910C94A62B6093EB
:10582000EE047093EF048093F0049093F1040C94D1
:1058300031278091C70490919604891719F08F5FE2
:105840008770FBCF0895CF938091950482958F70D8
:1058500009F05FC080919204882309F45AC08091B6
:10586000C704B091960470919004A0919104409166
:1058700093045091940491E07F3F09F090E0692FE8
:10588000C6E08B1709F445C04115510521F0AF3F23
:1058900021F020E003C021E001C0262F90E020FD90
:1058A00035C0C89FF001C99FF00D1124E956FB4F88
:1058B00021812A132BC02081271328C02281211186
:1058C00025C0238134812417350710F42150310974
:1058D000241B350B283C3105C8F4209195042F700A
:1058E00020612093950426E0289FF001299FF00D68
:1058F0001124E456FB4F80818F708061808380E9A2
:1059000094E00E94E905CF910C94192C01968770C0
:10591000B8CFCF9108952091E4003091E50095E64D
:105920004091EC00842F817040FF23C08091E800FB
:1059300080FD1DC080917A04882399F0853099F00C
:105940008091EB0085FD11C04091E4005091E5008D
:105950002417350729F3915011F09A01E1CF84E023
:10596000089582E0089583E0089581E0089580E03D
:1059700008954091E80042FFDDCF089580917C04B6
:1059800087FF11C08091E80082FD05C080917A04F4
:105990008111F8CF11C08091E8008B770BC0809106
:1059A0007A04882349F08091E80080FFF8CF809145
:1059B000E8008E778093E8000895982F973068F577
:1059C0009093E900981739F07091EC002091ED0068
:1059D0005091F00003C0242F762F50E021FD02C02B
:1059E0009F5FECCF3091EB003E7F3093EB00309126
:1059F000ED003D7F3093ED003091EB00316030934E
:105A0000EB007093EC002093ED005093F000209198
:105A1000EE0027FDE5CF80E008958F708093E900C8
:105A200081E008952091820430918304261737077E
:105A300048F06115710539F42091E8002E77209324
:105A4000E80001C0B901FC0120E06115710579F1A0
:105A500080917A048823F1F18530F1F18091E8009A
:105A600083FD3CC08091E80082FD2EC08091E8005B
:105A700080FFEBCF2091F3008091F20090E0922B19
:105A80006115710551F08830910538F4219120930A
:105A9000F100615071090196F3CF21E0089709F0F8
:105AA00020E08091E8008E778093E800CECF21112E
:105AB000CFCF0AC080917A04882361F0853061F0ED
:105AC0008091E80083FD0AC08091E80082FFF2CF58
:105AD00080E0089582E0089583E0089581E00895CC
